{
  "contractName": "Crowdsource",
  "abi": [
    {
      "constant": true,
      "inputs": [],
      "name": "evaluator",
      "outputs": [
        {
          "name": "",
          "type": "address"
        }
      ],
      "payable": false,
      "stateMutability": "view",
      "type": "function"
    },
    {
      "constant": true,
      "inputs": [],
      "name": "genesis",
      "outputs": [
        {
          "name": "",
          "type": "bytes32"
        }
      ],
      "payable": false,
      "stateMutability": "view",
      "type": "function"
    },
    {
      "inputs": [],
      "payable": false,
      "stateMutability": "nonpayable",
      "type": "constructor"
    },
    {
      "constant": false,
      "inputs": [
        {
          "name": "_icontractType",
          "type": "uint256"
        },
        {
          "name": "_registFee",
          "type": "uint256"
        },
        {
          "name": "_reward",
          "type": "uint256"
        },
        {
          "name": "_modelLine",
          "type": "uint256"
        }
      ],
      "name": "icontractRecord",
      "outputs": [],
      "payable": false,
      "stateMutability": "nonpayable",
      "type": "function"
    },
    {
      "constant": false,
      "inputs": [
        {
          "name": "_typeNum",
          "type": "uint256"
        }
      ],
      "name": "numIcontractTypeRecord",
      "outputs": [],
      "payable": false,
      "stateMutability": "nonpayable",
      "type": "function"
    },
    {
      "constant": true,
      "inputs": [
        {
          "name": "_icontractType",
          "type": "uint256"
        },
        {
          "name": "_round",
          "type": "uint256"
        }
      ],
      "name": "getAFee",
      "outputs": [
        {
          "name": "fee",
          "type": "uint256"
        }
      ],
      "payable": false,
      "stateMutability": "view",
      "type": "function"
    },
    {
      "constant": false,
      "inputs": [
        {
          "name": "_icType",
          "type": "uint256"
        },
        {
          "name": "_feePaid",
          "type": "uint256"
        }
      ],
      "name": "signContract",
      "outputs": [],
      "payable": false,
      "stateMutability": "nonpayable",
      "type": "function"
    },
    {
      "constant": false,
      "inputs": [
        {
          "name": "_index",
          "type": "uint256"
        }
      ],
      "name": "trainerMsgSenderRecord",
      "outputs": [],
      "payable": false,
      "stateMutability": "nonpayable",
      "type": "function"
    },
    {
      "constant": true,
      "inputs": [
        {
          "name": "_index",
          "type": "uint256"
        }
      ],
      "name": "getTrainerMsgSender",
      "outputs": [
        {
          "name": "addr",
          "type": "address"
        }
      ],
      "payable": false,
      "stateMutability": "view",
      "type": "function"
    },
    {
      "constant": true,
      "inputs": [
        {
          "name": "_addr",
          "type": "address"
        },
        {
          "name": "_round",
          "type": "uint256"
        }
      ],
      "name": "getTrainerICType",
      "outputs": [
        {
          "name": "ictype",
          "type": "uint256"
        }
      ],
      "payable": false,
      "stateMutability": "view",
      "type": "function"
    },
    {
      "constant": true,
      "inputs": [
        {
          "name": "_type",
          "type": "uint256"
        },
        {
          "name": "_round",
          "type": "uint256"
        }
      ],
      "name": "getICModelLine",
      "outputs": [
        {
          "name": "ml",
          "type": "uint256"
        }
      ],
      "payable": false,
      "stateMutability": "view",
      "type": "function"
    },
    {
      "constant": true,
      "inputs": [
        {
          "name": "_addr",
          "type": "address"
        },
        {
          "name": "_round",
          "type": "uint256"
        }
      ],
      "name": "getTrainerHash",
      "outputs": [
        {
          "name": "hash",
          "type": "bytes32"
        }
      ],
      "payable": false,
      "stateMutability": "view",
      "type": "function"
    },
    {
      "constant": true,
      "inputs": [
        {
          "name": "_type",
          "type": "uint256"
        },
        {
          "name": "_round",
          "type": "uint256"
        }
      ],
      "name": "getICReward",
      "outputs": [
        {
          "name": "r",
          "type": "uint256"
        }
      ],
      "payable": false,
      "stateMutability": "view",
      "type": "function"
    },
    {
      "constant": true,
      "inputs": [],
      "name": "currentRound",
      "outputs": [
        {
          "name": "round",
          "type": "uint256"
        }
      ],
      "payable": false,
      "stateMutability": "view",
      "type": "function"
    },
    {
      "constant": true,
      "inputs": [],
      "name": "secondsRemaining",
      "outputs": [
        {
          "name": "remaining",
          "type": "uint256"
        }
      ],
      "payable": false,
      "stateMutability": "view",
      "type": "function"
    },
    {
      "constant": true,
      "inputs": [
        {
          "name": "_round",
          "type": "uint256"
        }
      ],
      "name": "updates",
      "outputs": [
        {
          "name": "",
          "type": "bytes32[]"
        }
      ],
      "payable": false,
      "stateMutability": "view",
      "type": "function"
    },
    {
      "constant": true,
      "inputs": [
        {
          "name": "_address",
          "type": "address"
        },
        {
          "name": "_round",
          "type": "uint256"
        }
      ],
      "name": "countTokens",
      "outputs": [
        {
          "name": "count",
          "type": "uint256"
        }
      ],
      "payable": false,
      "stateMutability": "view",
      "type": "function"
    },
    {
      "constant": true,
      "inputs": [
        {
          "name": "_round",
          "type": "uint256"
        }
      ],
      "name": "countTotalTokens",
      "outputs": [
        {
          "name": "count",
          "type": "uint256"
        }
      ],
      "payable": false,
      "stateMutability": "view",
      "type": "function"
    },
    {
      "constant": true,
      "inputs": [
        {
          "name": "_address",
          "type": "address"
        },
        {
          "name": "_round",
          "type": "uint256"
        }
      ],
      "name": "countCurrentToken",
      "outputs": [
        {
          "name": "count",
          "type": "uint256"
        }
      ],
      "payable": false,
      "stateMutability": "view",
      "type": "function"
    },
    {
      "constant": true,
      "inputs": [
        {
          "name": "_round",
          "type": "uint256"
        }
      ],
      "name": "countCurrentTotalTokens",
      "outputs": [
        {
          "name": "count",
          "type": "uint256"
        }
      ],
      "payable": false,
      "stateMutability": "view",
      "type": "function"
    },
    {
      "constant": true,
      "inputs": [
        {
          "name": "_address",
          "type": "address"
        },
        {
          "name": "_round",
          "type": "uint256"
        }
      ],
      "name": "madeContribution",
      "outputs": [
        {
          "name": "",
          "type": "bool"
        }
      ],
      "payable": false,
      "stateMutability": "view",
      "type": "function"
    },
    {
      "constant": false,
      "inputs": [
        {
          "name": "_newEvaluator",
          "type": "address"
        }
      ],
      "name": "setEvaluator",
      "outputs": [],
      "payable": false,
      "stateMutability": "nonpayable",
      "type": "function"
    },
    {
      "constant": false,
      "inputs": [
        {
          "name": "_cid",
          "type": "bytes32"
        },
        {
          "name": "_roundDuration",
          "type": "uint256"
        },
        {
          "name": "_maxNumUpdates",
          "type": "uint256"
        }
      ],
      "name": "setGenesis",
      "outputs": [],
      "payable": false,
      "stateMutability": "nonpayable",
      "type": "function"
    },
    {
      "constant": false,
      "inputs": [
        {
          "name": "_cid",
          "type": "bytes32"
        },
        {
          "name": "_round",
          "type": "uint256"
        }
      ],
      "name": "addModelUpdate",
      "outputs": [],
      "payable": false,
      "stateMutability": "nonpayable",
      "type": "function"
    },
    {
      "constant": false,
      "inputs": [
        {
          "name": "_cid",
          "type": "bytes32"
        },
        {
          "name": "_numTokens",
          "type": "uint256"
        }
      ],
      "name": "setTokens",
      "outputs": [],
      "payable": false,
      "stateMutability": "nonpayable",
      "type": "function"
    }
  ],
  "bytecode": "0x608060405234801561001057600080fd5b50336000806101000a81548173ffffffffffffffffffffffffffffffffffffffff021916908373ffffffffffffffffffffffffffffffffffffffff1602179055506119a3806100606000396000f30060806040526004361061013e576000357c0100000000000000000000000000000000000000000000000000000000900463ffffffff16806302dbbbac146101435780630951f3dc1461018657806311bb27ff146101bd57806316a331e614610202578063189d7dca1461024d57806321099274146102ae57806332fd011d146102db5780634610fa971461031657806352c42d5c1461037757806354fabca5146103dc5780635a871afe146104275780636f851862146104725780638a19c8bc146104ad578063940ebef7146104d85780639972a31b146105035780639cb93dd1146105645780639da2b54c146105bb5780639eee29be146105e8578063a7f0b3de14610651578063b4c2f72714610684578063bcc1fcf414610706578063bf1de05114610747578063c181de32146107b4578063ebe328f8146107ff575b600080fd5b34801561014f57600080fd5b50610184600480360381019080803573ffffffffffffffffffffffffffffffffffffffff169060200190929190505050610840565b005b34801561019257600080fd5b506101bb6004803603810190808035906020019092919080359060200190929190505050610947565b005b3480156101c957600080fd5b5061020060048036038101908080356000191690602001909291908035906020019092919080359060200190929190505050610a1d565b005b34801561020e57600080fd5b5061024b60048036038101908080359060200190929190803590602001909291908035906020019092919080359060200190929190505050610b87565b005b34801561025957600080fd5b50610298600480360381019080803573ffffffffffffffffffffffffffffffffffffffff16906020019092919080359060200190929190505050610c44565b6040518082815260200191505060405180910390f35b3480156102ba57600080fd5b506102d960048036038101908080359060200190929190505050610d79565b005b3480156102e757600080fd5b50610314600480360381019080803560001916906020019092919080359060200190929190505050610d83565b005b34801561032257600080fd5b50610361600480360381019080803573ffffffffffffffffffffffffffffffffffffffff1690602001909291908035906020019092919050505061112d565b6040518082815260200191505060405180910390f35b34801561038357600080fd5b506103c2600480360381019080803573ffffffffffffffffffffffffffffffffffffffff16906020019092919080359060200190929190505050611191565b604051808215151515815260200191505060405180910390f35b3480156103e857600080fd5b506104116004803603810190808035906020019092919080359060200190929190505050611283565b6040518082815260200191505060405180910390f35b34801561043357600080fd5b5061045c60048036038101908080359060200190929190803590602001909291905050506112bb565b6040518082815260200191505060405180910390f35b34801561047e57600080fd5b506104ab6004803603810190808035600019169060200190929190803590602001909291905050506112f3565b005b3480156104b957600080fd5b506104c26114ad565b6040518082815260200191505060405180910390f35b3480156104e457600080fd5b506104ed6114d2565b6040518082815260200191505060405180910390f35b34801561050f57600080fd5b5061054e600480360381019080803573ffffffffffffffffffffffffffffffffffffffff169060200190929190803590602001909291905050506114f8565b6040518082815260200191505060405180910390f35b34801561057057600080fd5b5061057961157c565b604051808273ffffffffffffffffffffffffffffffffffffffff1673ffffffffffffffffffffffffffffffffffffffff16815260200191505060405180910390f35b3480156105c757600080fd5b506105e6600480360381019080803590602001909291905050506115a1565b005b3480156105f457600080fd5b50610633600480360381019080803573ffffffffffffffffffffffffffffffffffffffff169060200190929190803590602001909291905050506115f6565b60405180826000191660001916815260200191505060405180910390f35b34801561065d57600080fd5b5061066661165a565b60405180826000191660001916815260200191505060405180910390f35b34801561069057600080fd5b506106af60048036038101908080359060200190929190505050611660565b6040518080602001828103825283818151815260200191508051906020019060200280838360005b838110156106f25780820151818401526020810190506106d7565b505050509050019250505060405180910390f35b34801561071257600080fd5b50610731600480360381019080803590602001909291905050506116cf565b6040518082815260200191505060405180910390f35b34801561075357600080fd5b50610772600480360381019080803590602001909291905050506117d6565b604051808273ffffffffffffffffffffffffffffffffffffffff1673ffffffffffffffffffffffffffffffffffffffff16815260200191505060405180910390f35b3480156107c057600080fd5b506107e96004803603810190808035906020019092919080359060200190929190505050611813565b6040518082815260200191505060405180910390f35b34801561080b57600080fd5b5061082a6004803603810190808035906020019092919050505061184b565b6040518082815260200191505060405180910390f35b6000809054906101000a900473ffffffffffffffffffffffffffffffffffffffff1673ffffffffffffffffffffffffffffffffffffffff163373ffffffffffffffffffffffffffffffffffffffff16141515610904576040517f08c379a000000000000000000000000000000000000000000000000000000000815260040180806020018281038252601c8152602001807f4e6f74207468652072656769737465726564206576616c7561746f720000000081525060200191505060405180910390fd5b806000806101000a81548173ffffffffffffffffffffffffffffffffffffffff021916908373ffffffffffffffffffffffffffffffffffffffff16021790555050565b600f60003373ffffffffffffffffffffffffffffffffffffffff1673ffffffffffffffffffffffffffffffffffffffff168152602001908152602001600020829080600181540180825580915050906001820390600052602060002001600090919290919091505550601060003373ffffffffffffffffffffffffffffffffffffffff1673ffffffffffffffffffffffffffffffffffffffff1681526020019081526020016000208190806001815401808255809150509060018203906000526020600020016000909192909190915055505050565b6000809054906101000a900473ffffffffffffffffffffffffffffffffffffffff1673ffffffffffffffffffffffffffffffffffffffff163373ffffffffffffffffffffffffffffffffffffffff16141515610ae1576040517f08c379a000000000000000000000000000000000000000000000000000000000815260040180806020018281038252601c8152602001807f4e6f74207468652072656769737465726564206576616c7561746f720000000081525060200191505060405180910390fd5b600060010260015460001916141515610b62576040517f08c379a000000000000000000000000000000000000000000000000000000000815260040180806020018281038252601c8152602001807f47656e657369732068617320616c7265616479206265656e207365740000000081525060200191505060405180910390fd5b8260018160001916905550426002819055508160038190555080600481905550505050565b600b6000858152602001908152602001600020839080600181540180825580915050906001820390600052602060002001600090919290919091505550600c6000858152602001908152602001600020829080600181540180825580915050906001820390600052602060002001600090919290919091505550600d600085815260200190815260200160002081908060018154018082558091505090600182039060005260206000200160009091929091909150555050505050565b60006060600080600860008773ffffffffffffffffffffffffffffffffffffffff1673ffffffffffffffffffffffffffffffffffffffff168152602001908152602001600020805480602002602001604051908101604052809291908181526020018280548015610cd857602002820191906000526020600020905b81546000191681526020019060010190808311610cc0575b50505050509250600091505b8251821015610d70578282815181101515610cfb57fe5b9060200190602002015190508460076000836000191660001916815260200190815260200160002054111515610d6357600a60008484815181101515610d3d57fe5b906020019060200201516000191660001916815260200190815260200160002054840193505b8180600101925050610ce4565b50505092915050565b80600e8190555050565b600081111515610e21576040517f08c379a000000000000000000000000000000000000000000000000000000000815260040180806020018281038252602a8152602001807f43616e6e6f742061646420616e2075706461746520666f72207468652067656e81526020017f6573697320726f756e640000000000000000000000000000000000000000000081525060400191505060405180910390fd5b610e296114ad565b8110151515610ec6576040517f08c379a00000000000000000000000000000000000000000000000000000000081526004018080602001828103825260258152602001807f43616e6e6f742061646420616e2075706461746520666f72206120706173742081526020017f726f756e6400000000000000000000000000000000000000000000000000000081525060400191505060405180910390fd5b610ece6114ad565b8111151515610f6b576040517f08c379a00000000000000000000000000000000000000000000000000000000081526004018080602001828103825260278152602001807f43616e6e6f742061646420616e2075706461746520666f72206120667574757281526020017f6520726f756e640000000000000000000000000000000000000000000000000081525060400191505060405180910390fd5b610f753382611191565b151515611010576040517f08c379a00000000000000000000000000000000000000000000000000000000081526004018080602001828103825260268152602001807f416c726561647920616464656420616e2075706461746520666f72207468697381526020017f20726f756e64000000000000000000000000000000000000000000000000000081525060400191505060405180910390fd5b60066000828152602001908152602001600020829080600181540180825580915050906001820390600052602060002001600090919290919091509060001916905550600860003373ffffffffffffffffffffffffffffffffffffffff1673ffffffffffffffffffffffffffffffffffffffff1681526020019081526020016000208290806001815401808255809150509060018203906000526020600020016000909192909190915090600019169055508060076000846000191660001916815260200190815260200160002081905550600060045411801561110c5750600454600660008381526020019081526020016000208054905010155b15611129576111196114d2565b6005600082825401925050819055505b5050565b6000600f60008473ffffffffffffffffffffffffffffffffffffffff1673ffffffffffffffffffffffffffffffffffffffff1681526020019081526020016000206001830381548110151561117e57fe5b9060005260206000200154905092915050565b60008060008091505b600860008673ffffffffffffffffffffffffffffffffffffffff1673ffffffffffffffffffffffffffffffffffffffff1681526020019081526020016000208054905082101561127657600860008673ffffffffffffffffffffffffffffffffffffffff1673ffffffffffffffffffffffffffffffffffffffff1681526020019081526020016000208281548110151561123057fe5b9060005260206000200154905083600760008360001916600019168152602001908152602001600020541415611269576001925061127b565b818060010192505061119a565b600092505b505092915050565b6000600c6000848152602001908152602001600020600183038154811015156112a857fe5b9060005260206000200154905092915050565b6000600b6000848152602001908152602001600020600183038154811015156112e057fe5b9060005260206000200154905092915050565b6000809054906101000a900473ffffffffffffffffffffffffffffffffffffffff1673ffffffffffffffffffffffffffffffffffffffff163373ffffffffffffffffffffffffffffffffffffffff161415156113b7576040517f08c379a000000000000000000000000000000000000000000000000000000000815260040180806020018281038252601c8152602001807f4e6f74207468652072656769737465726564206576616c7561746f720000000081525060200191505060405180910390fd5b60096000836000191660001916815260200190815260200160002060009054906101000a900460ff16151515611455576040517f08c379a00000000000000000000000000000000000000000000000000000000081526004018080602001828103825260208152602001807f5570646174652068617320616c7265616479206265656e20726577617264656481525060200191505060405180910390fd5b80600a6000846000191660001916815260200190815260200160002081905550600160096000846000191660001916815260200190815260200160002060006101000a81548160ff0219169083151502179055505050565b6000806002544260055401039050600354818115156114c857fe5b0460010191505090565b6000806002544260055401039050600354818115156114ed57fe5b066003540391505090565b600080600860008573ffffffffffffffffffffffffffffffffffffffff1673ffffffffffffffffffffffffffffffffffffffff1681526020019081526020016000206001840381548110151561154a57fe5b90600052602060002001549050600a600082600019166000191681526020019081526020016000205491505092915050565b6000809054906101000a900473ffffffffffffffffffffffffffffffffffffffff1681565b336011600083815260200190815260200160002060006101000a81548173ffffffffffffffffffffffffffffffffffffffff021916908373ffffffffffffffffffffffffffffffffffffffff16021790555050565b6000600860008473ffffffffffffffffffffffffffffffffffffffff1673ffffffffffffffffffffffffffffffffffffffff1681526020019081526020016000206001830381548110151561164757fe5b9060005260206000200154905092915050565b60015481565b6060600660008381526020019081526020016000208054806020026020016040519081016040528092919081815260200182805480156116c357602002820191906000526020600020905b815460001916815260200190600101908083116116ab575b50505050509050919050565b600060606000806006600086815260200190815260200160002080548060200260200160405190810160405280929190818152602001828054801561173757602002820191906000526020600020905b8154600019168152602001906001019080831161171f575b50505050509250600091505b82518210156117ce57828281518110151561175a57fe5b906020019060200201519050846007600083600019166000191681526020019081526020016000205414156117c157600a6000848481518110151561179b57fe5b906020019060200201516000191660001916815260200190815260200160002054840193505b8180600101925050611743565b505050919050565b60006011600083815260200190815260200160002060009054906101000a900473ffffffffffffffffffffffffffffffffffffffff169050919050565b6000600d60008481526020019081526020016000206001830381548110151561183857fe5b9060005260206000200154905092915050565b6000806060600080600193505b6118606114ad565b8411151561196e57600660008581526020019081526020016000208054806020026020016040519081016040528092919081815260200182805480156118c957602002820191906000526020600020905b815460001916815260200190600101908083116118b1575b50505050509250600091505b82518210156119615782828151811015156118ec57fe5b906020019060200201519050856007600083600019166000191681526020019081526020016000205411151561195457600a6000848481518110151561192e57fe5b906020019060200201516000191660001916815260200190815260200160002054850194505b81806001019250506118d5565b8380600101945050611858565b505050509190505600a165627a7a723058206a47aa244c35b4f4ea5224c71846930ff47e0af1d89b62b0f06bdd39e913695b0029",
  "source": "pragma solidity >=0.4.21 <0.7.0;\n\n/// @title Records contributions made to a Crowdsourcing Federated Learning process\n/// @author Harry Cai\ncontract Crowdsource {\n    /// @notice Address of contract creator, who evaluates updates\n    address public evaluator;\n\n    /// @notice IPFS CID of genesis model\n    bytes32 public genesis;\n\n    /// @dev The timestamp when the genesis model was upload\n    uint256 internal genesisTimestamp;\n\n    /// @dev Duration of each training round in seconds\n    uint256 internal roundDuration;\n\n    /// @dev Number of updates before training round automatically ends. (If 0, always wait the full roundDuration)\n    uint256 internal maxNumUpdates;\n\n    /// @dev Total number of seconds skipped when training rounds finish early\n    uint256 internal timeSkipped;\n\n    /// @dev The IPFS CIDs of model updates in each round\n    mapping(uint256 => bytes32[]) internal updatesInRound;\n\n    /// @dev The round to which each model update belongs\n    mapping(bytes32 => uint256) internal updateRound;\n\n    /// @dev The IPFS CIDs of model updates made by each address\n    mapping(address => bytes32[]) internal updatesFromAddress;\n\n    /// @dev Whether or not each model update has been evaluated\n    mapping(bytes32 => bool) internal tokensAssigned;\n\n    /// @dev The contributivity score for each model update, if evaluated\n    mapping(bytes32 => uint256) internal tokens;\n\n\n\n    /// @dev Registration fee in the contract per round\n    mapping(uint => uint[]) internal registFee;\n\n    /// @dev reward in the contract per round\n    mapping(uint => uint[]) internal reward;\n\n    /// @dev model line in the contract per round\n    mapping(uint => uint[]) internal modelLine;\n\n    /// @dev Number of contract types\n    uint numIcontractType;\n\n\n\n    /// @dev Record the types of contracts signed by the participants in each round\n    mapping(address => uint[]) internal signContractRecord;\n\n    /// @dev Record the fees paid by the parties after each round of contract selection\n    mapping(address => uint[]) internal feePaidRecord;\n\n\n\n\n    /// @dev trainer msg.sender of each trainer\n    mapping(uint => address) internal trainerMsgSender;\n\n\n\n\n    /// @dev Record the relevant content of the incentive mechanism contract\n    function icontractRecord(uint _icontractType, uint _registFee, uint _reward, uint _modelLine) external {\n        registFee[_icontractType].push(_registFee);\n        reward[_icontractType].push(_reward);\n        modelLine[_icontractType].push(_modelLine);\n    }\n\n    /// @dev Record the number of contract types\n    function numIcontractTypeRecord(uint _typeNum) external {\n        numIcontractType = _typeNum;\n    }\n\n\n\n    /// @dev Get the fee for a given contract type\n    function getAFee(uint _icontractType, uint _round) external view returns (uint fee){\n        fee = registFee[_icontractType][_round-1];\n    }\n\n\n\n    /// @dev Participants sign contracts in each round\n    function signContract(uint _icType, uint _feePaid) external {\n        signContractRecord[msg.sender].push(_icType);\n        feePaidRecord[msg.sender].push(_feePaid);\n    }\n\n\n    /// @dev Record msg.sender of each trainer\n    function trainerMsgSenderRecord(uint _index) external {\n        trainerMsgSender[_index] = msg.sender;\n    }\n\n    /// @dev Get msg.sender of a trainer\n    function getTrainerMsgSender(uint _index) external view returns (address addr) {\n        addr = trainerMsgSender[_index];\n    }\n\n    /// @dev Get the type of contract signed by a participant in a certain round\n    function getTrainerICType(address _addr, uint _round) external view returns (uint ictype) {\n        ictype = signContractRecord[_addr][_round-1];\n    }\n\n    /// @dev Get the modelLine corresponding to a contract\n    function getICModelLine(uint _type, uint _round) external view returns (uint ml) {\n        ml = modelLine[_type][_round-1];\n    }\n\n    /// @dev Get the trainer model hash for the given address\n    function getTrainerHash(address _addr, uint _round) external view returns (bytes32 hash) {\n        hash = updatesFromAddress[_addr][_round-1];\n    }\n\n\n    function getICReward(uint _type, uint _round) external view returns (uint r) {\n        r = reward[_type][_round-1];\n    }\n\n\n\n    /// @notice Constructor. The address that deploys the contract is set as the evaluator.\n    constructor() public {\n        evaluator = msg.sender;\n    }\n\n    modifier evaluatorOnly() {\n        require(msg.sender == evaluator, \"Not the registered evaluator\");\n        _;\n    }\n\n    /// @return round The index of the current training round.\n    function currentRound() public view returns (uint256 round) {\n        uint256 timeElapsed = timeSkipped + now - genesisTimestamp;\n        round = 1 + (timeElapsed / roundDuration);\n    }\n\n    /// @return remaining The number of seconds remaining in the current training round.\n    function secondsRemaining() public view returns (uint256 remaining) {\n        uint256 timeElapsed = timeSkipped + now - genesisTimestamp;\n        remaining = roundDuration - (timeElapsed % roundDuration);\n    }\n\n    /// @return The CID's of updates in the given training round.\n    function updates(uint256 _round) external view returns (bytes32[] memory) {\n        return updatesInRound[_round];\n    }\n\n    /// @return count Token count of the given address up to and including the given round.\n    function countTokens(address _address, uint256 _round)\n        external\n        view\n        returns (uint256 count)\n    {\n        bytes32[] memory updates = updatesFromAddress[_address];\n        for (uint256 i = 0; i < updates.length; i++) {\n            bytes32 update = updates[i];\n            if (updateRound[update] <= _round) {\n                count += tokens[updates[i]];\n            }\n        }\n    }\n\n    /// @return count Total number of tokens up to and including the given round.\n    function countTotalTokens(uint256 _round) external view returns (uint256 count) {\n        for (uint256 i = 1; i <= currentRound(); i++) {\n            bytes32[] memory updates = updatesInRound[i];\n            for (uint256 j = 0; j < updates.length; j++) {\n                bytes32 update = updates[j];\n                if (updateRound[update] <= _round){\n                    count += tokens[updates[j]];\n                }\n            }\n        }\n    }\n\n\n    /// @return Get the number of rewards a participant has received this round\n    function countCurrentToken(address _address, uint256 _round)\n        external\n        view\n        returns (uint256 count)\n    {\n        bytes32 model_hash = updatesFromAddress[_address][_round-1];\n        count = tokens[model_hash];\n    }\n\n    /// @return Get the total number of rewards received by all participants in this round\n    function countCurrentTotalTokens(uint256 _round) external view returns (uint256 count) {\n        bytes32[] memory current_round_updates = updatesInRound[_round];\n        for (uint256 j = 0; j < current_round_updates.length; j++) {\n            bytes32 current_round_update = current_round_updates[j];\n            if (updateRound[current_round_update] == _round){\n                count += tokens[current_round_updates[j]];\n            }\n        }\n    }\n\n\n\n\n\n    /// @return Whether the given address made a contribution in the given round.\n    function madeContribution(address _address, uint256 _round)\n        public\n        view\n        returns (bool)\n    {\n        for (uint256 i = 0; i < updatesFromAddress[_address].length; i++) {\n            bytes32 update = updatesFromAddress[_address][i];\n            if (updateRound[update] == _round) {\n                return true;\n            }\n        }\n        return false;\n    }\n\n    /// @notice Sets a new evaluator.\n    function setEvaluator(address _newEvaluator) external evaluatorOnly() {\n        evaluator = _newEvaluator;\n    }\n\n    /// @notice Starts training by setting the genesis model. Can only be called once.\n    /// @param _cid The CID of the genesis model\n    /// @param _roundDuration Number of seconds per training round\n    /// @param _maxNumUpdates Number of updates per round before training round automatically ends. (If 0, always wait the full roundDuration)\n    /// @dev Does not reset the training process! Deploy a new contract instead.\n    function setGenesis(\n        bytes32 _cid,\n        uint256 _roundDuration,\n        uint256 _maxNumUpdates\n    ) external evaluatorOnly() {\n        require(genesis == 0, \"Genesis has already been set\");\n        genesis = _cid;\n        genesisTimestamp = now;\n        roundDuration = _roundDuration;\n        maxNumUpdates = _maxNumUpdates;\n    }\n\n    /// @notice Records a training contribution in the current round.\n    function addModelUpdate(bytes32 _cid, uint256 _round) external {\n        require(_round > 0, \"Cannot add an update for the genesis round\");\n        require(\n            _round >= currentRound(),\n            \"Cannot add an update for a past round\"\n        );\n        require(\n            _round <= currentRound(),\n            \"Cannot add an update for a future round\"\n        );\n        require(\n            !madeContribution(msg.sender, _round),\n            \"Already added an update for this round\"\n        );\n\n        updatesInRound[_round].push(_cid);\n        updatesFromAddress[msg.sender].push(_cid);\n        updateRound[_cid] = _round;\n\n        if (\n            maxNumUpdates > 0 && updatesInRound[_round].length >= maxNumUpdates\n        ) {\n            // Skip to the end of training round\n            timeSkipped += secondsRemaining();\n        }\n    }\n\n    /// @notice Assigns a token count to an update.\n    /// @param _cid The update being rewarded\n    /// @param _numTokens The number of tokens to award; should be based on marginal value contribution\n    function setTokens(bytes32 _cid, uint256 _numTokens)\n        external\n        evaluatorOnly()\n    {\n        require(!tokensAssigned[_cid], \"Update has already been rewarded\");\n        tokens[_cid] = _numTokens;\n        tokensAssigned[_cid] = true;\n    }\n}\n",
  "sourcePath": "E:\\PyCharmProjects\\twoCP\\contracts\\Crowdsource.sol",
  "compiler": {
    "name": "solc",
    "version": "0.4.22+commit.4cb486ee.Emscripten.clang"
  },
  "schemaVersion": "3.4.7",
  "updatedAt": "2022-06-21T02:33:14.354Z",
  "networkType": "ethereum",
  "devdoc": {
    "author": "Harry Cai",
    "methods": {
      "countCurrentToken(address,uint256)": {
        "return": "Get the number of rewards a participant has received this round"
      },
      "countCurrentTotalTokens(uint256)": {
        "return": "Get the total number of rewards received by all participants in this round"
      },
      "countTokens(address,uint256)": {
        "return": "count Token count of the given address up to and including the given round."
      },
      "countTotalTokens(uint256)": {
        "return": "count Total number of tokens up to and including the given round."
      },
      "currentRound()": {
        "return": "round The index of the current training round."
      },
      "getAFee(uint256,uint256)": {
        "details": "Get the fee for a given contract type"
      },
      "getICModelLine(uint256,uint256)": {
        "details": "Get the modelLine corresponding to a contract"
      },
      "getTrainerHash(address,uint256)": {
        "details": "Get the trainer model hash for the given address"
      },
      "getTrainerICType(address,uint256)": {
        "details": "Get the type of contract signed by a participant in a certain round"
      },
      "getTrainerMsgSender(uint256)": {
        "details": "Get msg.sender of a trainer"
      },
      "icontractRecord(uint256,uint256,uint256,uint256)": {
        "details": "Record the relevant content of the incentive mechanism contract"
      },
      "madeContribution(address,uint256)": {
        "return": "Whether the given address made a contribution in the given round."
      },
      "numIcontractTypeRecord(uint256)": {
        "details": "Record the number of contract types"
      },
      "secondsRemaining()": {
        "return": "remaining The number of seconds remaining in the current training round."
      },
      "setGenesis(bytes32,uint256,uint256)": {
        "details": "Does not reset the training process! Deploy a new contract instead.",
        "params": {
          "_cid": "The CID of the genesis model",
          "_maxNumUpdates": "Number of updates per round before training round automatically ends. (If 0, always wait the full roundDuration)",
          "_roundDuration": "Number of seconds per training round"
        }
      },
      "setTokens(bytes32,uint256)": {
        "params": {
          "_cid": "The update being rewarded",
          "_numTokens": "The number of tokens to award; should be based on marginal value contribution"
        }
      },
      "signContract(uint256,uint256)": {
        "details": "Participants sign contracts in each round"
      },
      "trainerMsgSenderRecord(uint256)": {
        "details": "Record msg.sender of each trainer"
      },
      "updates(uint256)": {
        "return": "The CID's of updates in the given training round."
      }
    },
    "title": "Records contributions made to a Crowdsourcing Federated Learning process"
  },
  "userdoc": {
    "methods": {
      "addModelUpdate(bytes32,uint256)": {
        "notice": "Records a training contribution in the current round."
      },
      "setEvaluator(address)": {
        "notice": "Sets a new evaluator."
      },
      "setGenesis(bytes32,uint256,uint256)": {
        "notice": "Starts training by setting the genesis model. Can only be called once."
      },
      "setTokens(bytes32,uint256)": {
        "notice": "Assigns a token count to an update."
      }
    }
  }
}